:100000000C9462000C948A000C948A000C948A0070
:100010000C948A000C948A000C948A000C948A0038
:100020000C948A000C948A000C948A000C948A0028
:100030000C948A000C948A000C948A000C948A0018
:100040000C94FC030C948A000C946C040C944604ED
:100050000C948A000C948A000C948A000C948A00F8
:100060000C948A000C948A000000000024002700F1
:100070002A0000000000250028002B0000000000DE
:1000800023002600290004040404040404040202DA
:100090000202020203030303030301020408102007
:1000A0004080010204081020010204081020000012
:1000B0000008000201000003040700000000000027
:1000C0000000F40511241FBECFEFD8E0DEBFCDBF86
:1000D00011E0A0E0B1E0E6E9FCE002C005900D927D
:1000E000A433B107D9F721E0A4E3B1E001C01D9228
:1000F000AD3DB207E1F710E0C2E6D0E004C02197C1
:10010000FE010E944306C136D107C9F70E949E0432
:100110000C9449060C940000833081F028F481305F
:1001200099F08230A9F008958730A9F08830C9F09D
:100130008430B1F4809180008F7D03C08091800075
:100140008F7780938000089584B58F7784BD08955C
:1001500084B58F7DFBCF8091B0008F778093B00006
:1001600008958091B0008F7DF9CFCF93DF93282F32
:1001700030E0F901E255FF4F8491F901E656FF4F57
:10018000D491F901EA57FF4FC491CC23A1F081111A
:100190000E948C00EC2FF0E0EE0FFF1FE458FF4FA1
:1001A000A591B491EC91ED2381E090E009F480E019
:1001B000DF91CF91089580E090E0FACF1F93CF9325
:1001C000DF93282F30E0F901E255FF4F8491F901C8
:1001D000E656FF4FD491F901EA57FF4FC491CC2363
:1001E000A9F0162F81110E948C00EC2FF0E0EE0F89
:1001F000FF1FEE58FF4FA591B4918FB7F894EC9183
:10020000111108C0D095DE23DC938FBFDF91CF9111
:100210001F910895DE2BF8CFCF93DF9390E0FC0180
:10022000E656FF4F24918A579F4FFC018491882303
:10023000D1F090E0880F991FFC01E859FF4FA5917C
:10024000B491FC01EE58FF4FC591D491623071F426
:100250009FB7F8943C91822F809583238C93E881FB
:100260002E2B28839FBFDF91CF9108958FB7F894ED
:10027000EC912E2B2C938FBFF6CF3FB7F894809143
:100280003C0190913D01A0913E01B0913F0126B506
:10029000A89B05C02F3F19F00196A11DB11D3FBFBE
:1002A000BA2FA92F982F8827BC01CD01620F711D8D
:1002B000811D911D42E0660F771F881F991F4A9587
:1002C000D1F70895AF92BF92CF92DF92EF92FF9253
:1002D0000F931F93CF93DF936C017B018B01040F6E
:1002E000151FEB015E01AE18BF08C017D10759F00A
:1002F0006991D601ED91FC910190F081E02DC6014C
:100300000995892B79F7C501DF91CF911F910F9145
:10031000FF90EF90DF90CF90BF90AF900895FC01D9
:10032000538D448D252F30E0842F90E0821B930B5A
:10033000541710F0CF96089501970895FC01918D00
:10034000828D981761F0A28DAE0FBF2FB11D5D9603
:100350008C91928D9F5F9F73928F90E008958FEFA5
:100360009FEF0895FC01918D828D981731F0828D59
:10037000E80FF11D858D90E008958FEF9FEF0895B0
:10038000FC01918D228D892F90E0805C9F4F821B14
:1003900091098F739927089580E491E00E94C0012C
:1003A00021E0892B09F420E0822F089580E090E07D
:1003B000892B29F00E94CC0181110C940000089532
:1003C000FC01A48DA80FB92FB11DA35ABF4F2C91CA
:1003D000848D90E001968F739927848FA689B789C1
:1003E0002C93A089B1898C91837080648C93938DB8
:1003F000848D981306C00288F389E02D80818F7D5B
:1004000080830895EF92FF920F931F93CF93DF9312
:10041000EC0181E0888F9B8D8C8D98131AC0E88940
:10042000F989808185FF15C09FB7F894EE89FF890F
:100430006083E889F98980818370806480839FBFAD
:1004400081E090E0DF91CF911F910F91FF90EF90AD
:100450000895F62E0B8D10E00F5F1F4F0F731127BD
:10046000E02E8C8D8E110CC00FB607FCFACFE889F8
:10047000F989808185FFF5CFCE010E94E001F1CF9F
:10048000EB8DEC0FFD2FF11DE35AFF4FF0829FB76C
:10049000F8940B8FEA89FB8980818062CFCFCF935C
:1004A000DF93EC01888D8823B9F0AA89BB89E8899C
:1004B000F9898C9185FD03C0808186FD0DC00FB642
:1004C00007FCF7CF8C9185FFF2CF808185FFEDCFC0
:1004D000CE010E94E001E9CFDF91CF910895FC01A8
:1004E00001900020E9F73197AF01481B590BBC017F
:1004F00080E491E00C9462018F929F92AF92BF9240
:100500000F931F93CF93DF93CDB7DEB7A1970FB6AD
:10051000F894DEBF0FBECDBF19A2423008F44AE006
:100520008E010F5D1F4F842E912CB12CA12CA501A3
:1005300094010E942106E62FB901CA01EA30F4F4C1
:10054000E05DD801EE938D01232B242B252B79F729
:1005500090E080E0109719F0CD010E946F02A19603
:100560000FB6F894DEBF0FBECDBFDF91CF911F91C4
:100570000F91BF90AF909F908F900895E95CE1CF6D
:10058000CF92DF92EF92FF92CF93DF936B017C01CA
:100590006DE280E491E00E940202EC016627772779
:1005A000CB016C197D098E099F094AE00E947C02EB
:1005B0008C0F9D1FDF91CF91FF90EF90DF90CF9038
:1005C00008955F926F927F928F929F92AF92BF92A7
:1005D000CF92DF92EF92FF920F931F93CF93DF930F
:1005E0007C01562E92E1A92E91E0B92ED0E0C0E018
:1005F0002BE9622E2FE0722E61E083E00E940C0155
:1006000060E083E00E94DE0061E085E00E940C0172
:1006100060E085E00E94DE0061E086E00E940C015F
:1006200060E086E00E94DE0061E082E00E94DE0081
:1006300061E084E00E94DE0061E087E00E94DE006D
:1006400061E088E00E94DE008AE1882E81E0982E39
:1006500010E000E0511009C0809134018823D9F0E6
:100660000115110591F4209739F5F401C080D1806E
:1006700061E08C2D0E940C01E114F10409F063C0CB
:1006800060E08C2D0E94DE0089C00130110581F4EC
:10069000C130D10551F3809135018823B9F0023082
:1006A000110571F4209709F3C330D10579F4DDCF3A
:1006B000C230D10581F7D9CFC330D10561F7D5CF8D
:1006C0000115110581F4C130D10579F2809136010F
:1006D0008823A9F00130110551F4209731F2C3307D
:1006E000D10569F4C2CFC230D10581F7BECF023047
:1006F000110509F078C0C130D10509F4B6CF0F5FFC
:100700001F4FF2E08F0E911C0330110509F0A2CFAC
:10071000C3010197F1F7219682E0A80EB11CC43005
:10072000D10509F069CFDF91CF911F910F91FF9013
:10073000EF90DF90CF90BF90AF909F908F907F9081
:100740006F905F900895FFEFEF16F10411F461E0F0
:1007500098CFF601FF27E255FF4FE491E33049F1CE
:1007600048F4E130B9F0E230F9F080E8E816F1043D
:1007700074F786CFE73039F1E83069F1E430A9F752
:1007800080918000806280938000F0928B00E092E4
:100790008A0004C084B5806884BDE7BC60E0F501D0
:1007A00080810E94DE00ABCF84B5806284BDE8BC4E
:1007B000F5CF80918000806880938000F09289005E
:1007C000E0928800EBCF8091B00080688093B00009
:1007D000E092B300E3CF8091B00080628093B000DC
:1007E000E092B400DBCF0115110509F088CFC230CB
:1007F000D10509F084CF39CF1F920F920FB60F9217
:1008000011242F933F938F939F93AF93BF93809126
:10081000380190913901A0913A01B0913B0130919A
:10082000370123E0230F2D3758F50196A11DB11D87
:10083000209337018093380190933901A0933A01B6
:10084000B0933B0180913C0190913D01A0913E010C
:10085000B0913F010196A11DB11D80933C01909381
:100860003D01A0933E01B0933F01BF91AF919F9195
:100870008F913F912F910F900FBE0F901F90189561
:1008800026E8230F0296A11DB11DD2CF1F920F9211
:100890000FB60F9211242F933F934F935F936F9353
:1008A0007F938F939F93AF93BF93EF93FF9380E4D6
:1008B00091E00E94E001FF91EF91BF91AF919F9174
:1008C0008F917F916F915F914F913F912F910F90F9
:1008D0000FBE0F901F9018951F920F920FB60F9298
:1008E00011242F938F939F93EF93FF93E0915001E7
:1008F000F09151018081E0915601F091570182FD04
:100900001BC09081809159018F5F8F7320915A0194
:10091000821741F0E0915901F0E0E05CFE4F958FC5
:1009200080935901FF91EF919F918F912F910F909B
:100930000FBE0F901F9018958081F4CFCF93DF9357
:1009400000D01F92CDB7DEB7789484B5826084BDA5
:1009500084B5816084BD85B5826085BD85B58160C3
:1009600085BD80916E00816080936E001092810041
:1009700080918100826080938100809181008160FC
:1009800080938100809180008160809380008091BD
:10099000B10084608093B1008091B0008160809349
:1009A000B00080917A00846080937A0080917A0010
:1009B000826080937A0080917A00816080937A00CF
:1009C00080917A00806880937A001092C100E09153
:1009D0005001F091510182E08083E0914C01F0914F
:1009E0004D011082E0914E01F0914F018FEC808318
:1009F00010925801E0915401F091550186E08083F6
:100A0000E0915201F0915301808180618083E091F7
:100A10005201F0915301808188608083E0915201FE
:100A2000F0915301808180688083E0915201F091C0
:100A3000530180818F7D808361E083E00E940C01FF
:100A400061E085E00E940C0161E086E00E940C01FB
:100A500061E082E00E940C0161E084E00E940C01F0
:100A600061E087E00E940C0161E088E00E940C01D7
:100A700062E089E00E940C0162E08AE00E940C01C1
:100A800062E08BE00E940C0120E420937C008091C6
:100A90007A00806480937A0080917A0086FDFCCF92
:100AA00080917800909179009B838A8397FF03C09F
:100AB00003969B838A83EA81FB81F595E795F595FB
:100AC000E795FB83EA8300E211E0C12CD12C76018B
:100AD0001601F801F081F9830E5F1F4F8F2F0E94DE
:100AE000B500892B09F055C00E943D012B013C0146
:100AF00082E3882E912CA12CB12C0E943D01641917
:100B0000750986099709683E734081059105A8F328
:100B100021E0821A9108A108B10888EE480E83E00E
:100B2000581E611C711C81149104A104B10429F7A1
:100B300089810E94B500892B39F5C1018C5C9E4FDB
:100B40001C01FC018081F1E08F27F101808386E2A6
:100B500091E00E946F024AE0C701B6016F5F7F4FCC
:100B60008F4F9F4F0E947C028EE291E00E946F02A5
:100B7000F101608170E090E080E04AE00E947C0238
:100B800081E391E00E946F0289810E94B500892B68
:100B9000D9F3FFEFCF1ADF0AEF0AFF0A23E0C216EC
:100BA000D104E104F10409F093CF8091340188234A
:100BB00049F080913501882329F08091360161E068
:100BC000811101C060E08A819B810E94E10280E086
:100BD00090E0892B09F458CF0E94CC01882309F4B6
:100BE00053CF0E94000050CFE0E4F1E01382128264
:100BF00088EE93E0A0E0B0E084839583A683B7837A
:100C000084E091E09183808385EC90E095878487F0
:100C100084EC90E09787868780EC90E0918B808BC6
:100C200081EC90E0938B828B82EC90E0958B848BAF
:100C300086EC90E0978B868B118E128E138E148E1D
:100C40000895A1E21A2EAA1BBB1BFD010DC0AA1F0D
:100C5000BB1FEE1FFF1FA217B307E407F50720F025
:100C6000A21BB30BE40BF50B661F771F881F991FA0
:100C70001A9469F760957095809590959B01AC01E9
:100C8000BD01CF010895EE0FFF1F0590F491E02DF7
:060C90000994F894FFCF67
:100C960000000000020262018F014F02C0019E01A6
:100CA600B201020004000700080003000500060068
:100CB60009000A000B00426F74C3B36E20003A208D
:040CC600000D0A0013
:00000001FF
